S00F0000317364656C61792E7372656362
S11300000C942A000C9434000C9434000C943400A6
S11300100C9434000C9434000C9434000C9434008C
S11300200C9434000C9434000C9434000C9434007C
S11300300C9434000C9434000C9434000C9434006C
S11300400C9434000C9434000C9434000C9434005C
S11300500C94340011241FBECFE5D8E0DEBFCDBF21
S11300600E9436000C9446000C9400008FEF87BB6E
S113007018BA82E088BB2FEF39EF90E0215030406E
S11300809040E1F700C0000018BAF4CFF894FFCF15
S9030000FC
