:100000000C942A000C9434000C9434000C943400AA
:100010000C9434000C9434000C9434000C94340090
:100020000C9434000C9434000C9434000C94340080
:100030000C9434000C9434000C9434000C94340070
:100040000C9434000C9434000C9434000C94340060
:100050000C94340011241FBECFE5D8E0DEBFCDBF25
:100060000E9436000C944C000C94000081E087BB89
:1000700088BB309A3E9A3F9887B1807E87B9379A7D
:10008000369A3699FECF84B195B18130924014F002
:0C009000C098F5CFC09AF3CFF894FFCFD2
:00000001FF
