:100000000C942A000C9434000C9434000C943400AA
:100010000C9434000C9434000C9434000C94340090
:100020000C9434000C9434000C9434000C94340080
:100030000C9434000C9434000C9434000C94340070
:100040000C9434000C9434000C9434000C94340060
:100050000C94340011241FBECFE5D8E0DEBFCDBF25
:100060000E9448000C9473000C9400003E9A86B1E4
:10007000836886B90895369A3699FECF84B195B1D2
:100080000895389A369A3699FECF84B195B108957D
:100090001ABA8FEF87BB14BA11BA18BA0E94360089
:1000A00012E0D4E0C1E00E943B008E3C21E09207C8
:1000B00010F4C8BB06C08D3B924010F0D8BB01C005
:1000C00018BB0E9441008E3C21E0920710F4C39AB5
:1000D00006C08D3B924010F0C59A01C0C49A87B10A
:0A00E000807487B9E0CFF894FFCFD9
:00000001FF
