:100000000C942A000C9434000C9434000C943400AA
:100010000C9434000C9434000C9434000C94340090
:100020000C9434000C9434000C9434000C94340080
:100030000C9434000C9434000C9434000C94340070
:100040000C9434000C9434000C9434000C94340060
:100050000C94340011241FBECFE5D8E0DEBFCDBF25
:100060000E9462000C94BF000C94000010BC85E05C
:1000700089B988E08AB98EEB80BD08955D9BFECF7B
:100080008CB9089580E487B9369A3699FECF84B149
:1000900095B1089581E487B9369A3699FECF84B137
:1000A00095B1089582E487B9369A3699FECF84B126
:1000B00095B1089583E487B9369A3699FECF84B115
:1000C00095B108951ABA0E94360082E886B911E007
:1000D00002E00F2EF3E0FF2EF02D6894DD24D2F81D
:1000E0000F2EF5E0EF2EF02D0E944200803921E026
:1000F000920770F08D3B924068F40E944A0080396C
:1001000021E0920748F08D3B924040F4CE2D07C08D
:10011000C12F05C0C02F03C0CF2D01C0CD2D0E941F
:100120005200803921E0920728F08D3B924020F464
:10013000DF2D03C0D12F01C0D02F0E945A0080397B
:1001400021E0920728F08D3B924020F43F2D03C020
:10015000312F01C0302F8D2F880F880F880F8760B7
:100160002C2F2861982F9223232F2295220F207E57
:100170002F61892F806682230E943E00B5CFF894BC
:02018000FFCFAF
:00000001FF
