S019000074616E61625F766F5F72656365697665722E737265630D
S11300000C942A000C943C000C943C000C943C008E
S11300100C943C000C943C000C943C000C943C006C
S11300200C943C000C943C000C943C000C943C005C
S11300300C943C000C943C000C943C000C943C004C
S11300400C943C000C943C000C943C000C943C003C
S11300500C943C0011241FBECFE5D8E0DEBFCDBF19
S113006020E0A0E6B0E001C01D92A136B207E1F79E
S11300700E94E5000C9430010C94000010BC85E053
S113008089B988E18AB98EEB80BD08955F9BFECF64
S11300908CB1809360001CB880916000089580EA60
S11300A082BB81EE94E00197F1F700C0000080E686
S11300B082BB81EE94E00197F1F700C0000080E577
S11300C082BB81EE94E00197F1F700C0000080E963
S11300D082BB81EE94E00197F1F700C0000008951F
S11300E080E982BB81EE94E00197F1F700C0000043
S11300F080E582BB81EE94E00197F1F700C0000037
S113010080E682BB81EE94E00197F1F700C0000025
S113011080EA82BB81EE94E00197F1F700C0000011
S113012008958FEF82BB87E893E10197F1F700C050
S1130130000008958AE085BB81EE94E00197F1F711
S113014000C0000086E085BB81EE94E00197F1F7E2
S113015000C0000085E085BB81EE94E00197F1F7D3
S113016000C0000089E085BB81EE94E00197F1F7BF
S113017000C00000089589E085BB81EE94E00197FA
S1130180F1F700C0000085E085BB81EE94E00197A3
S1130190F1F700C0000086E085BB81EE94E0019792
S11301A0F1F700C000008AE085BB81EE94E001977E
S11301B0F1F700C0000008958FEF85BB87E893E155
S11301C00197F1F700C0000008958FEF87BB18BABC
S11301D081BB12BA84BB15BA0E943E001FEF0F2EDA
S11301E0F9E0EF2EF02D0F2EF6E0FF2EF02D05E0B6
S11301F0DAE00E944600982F9770913011F4D8BB32
S11302000DC0923011F408BB09C0933011F4F8BA50
S113021005C0943011F4E8BA01C018BBC82FC076E9
S1130220C295C695C77088718695869586958130E6
S113023019F40E94700007C0823019F40E944F0024
S113024002C00E949100C13019F40E94BB00D1CFBA
S1130250C23019F40E949A00CCCF0E94DC00C9CFAE
S1070260F894FFCF3C
S9030000FC
