:100000000C942A000C9434000C9434000C943400AA
:100010000C9434000C9434000C9434000C94340090
:100020000C9434000C9434000C9434000C94340080
:100030000C9434000C9434000C9434000C94340070
:100040000C9434000C9434000C9434000C94340060
:100050000C94340011241FBECFE5D8E0DEBFCDBF25
:100060000E944A000C9486000C9400005D9BFECF19
:100070008CB9089580E487B9369A3699FECF84B159
:1000800095B1089582E487B9369A3699FECF84B146
:1000900095B108951ABA8FEF87BB05EF14EF0F2EB5
:1000A000F3EFFF2EF02DC2EFD1EF0E943A0080391E
:1000B00021E0920728F481E00E943600D8BB1FC0DF
:1000C0008D3B924028F082E00E943600C8BB17C0EA
:1000D0000E944200803921E0920728F483E00E94C8
:1000E0003600F8BA0CC08D3B924028F084E00E94A4
:1000F000360018BB04C085E00E94360008BB87E8C4
:1001000093E10197F1F700C00000CFCFF894FFCF43
:00000001FF
