:100000000C942A000C9434000C9434000C943400AA
:100010000C9434000C9434000C9434000C94340090
:100020000C9434000C9434000C9434000C94340080
:100030000C9434000C9434000C9434000C94340070
:100040000C9434000C9434000C9434000C94340060
:100050000C94340011241FBECFE5D8E0DEBFCDBF25
:100060000E948D000C94A7000C94000010BC8BE241
:1000700089B980E18AB98EEB80BD08955F9BFECF80
:100080008CB108958AE082BB83ED90E30197F1F78C
:1000900000C0000086E082BB83ED90E30197F1F79A
:1000A00000C0000085E082BB83ED90E30197F1F78B
:1000B00000C0000089E082BB83ED90E30197F1F777
:1000C00000C00000089589E082BB83ED90E30197B2
:1000D000F1F700C0000085E082BB83ED90E301975B
:1000E000F1F700C0000086E082BB83ED90E301974A
:1000F000F1F700C000008AE082BB83ED90E3019736
:10010000F1F700C0000008958FEF82BB83ED90E30C
:100110000197F1F700C0000008958FEF81BB82BB0B
:100120000E9436000E943E00863019F40E9463004F
:1001300007C0873019F40E94420002C00E94840068
:1001400087E893E10197F1F700C00000EBCFF89446
:02015000FFCFDF
:00000001FF
