S02900006164635F756172745F737465707065725F636F6E74726F6C5F5452414E534D49542E7372656325
S11300000C942A000C9434000C9434000C943400A6
S11300100C9434000C9434000C9434000C9434008C
S11300200C9434000C9434000C9434000C9434007C
S11300300C9434000C9434000C9434000C9434006C
S11300400C9434000C9434000C9434000C9434005C
S11300500C94340011241FBECFE5D8E0DEBFCDBF21
S11300600E945F000C9467000C94000010BC8BE2AB
S113007089B988E08AB98EEB80BD08955D9BFECF77
S11300808CB9089582E487B9369A3699FECF84B143
S113009095B108950E944200803921E0920720F42E
S11300A086E00E943E0008958D3B924020F087E058
S11300B00E943E00089588E00E943E0008951ABA06
S11300C00E94360082E886B90E944A00FDCFF89467
S10500D0FFCF5C
S9030000FC
