S02000006164635F756172745F737465707065725F636F6E74726F6C2E73726563FF
S11300000C942A000C9434000C9434000C943400A6
S11300100C9434000C9434000C9434000C9434008C
S11300200C9434000C9434000C9434000C9434007C
S11300300C9434000C9434000C9434000C9434006C
S11300400C9434000C9434000C9434000C9434005C
S11300500C94340011241FBECFE5D8E0DEBFCDBF21
S11300600E947D000C9485000C94000010BC8BE26F
S113007089B988E08AB98EEB80BD08955D9BFECF77
S11300808CB9089582E487B9369A3699FECF84B143
S113009095B19927089583E487B9369A3699FECFA6
S11300A084B195B1992708950E944200803921E0D6
S11300B0920720F486E00E943E000AC08D3B9240E5
S11300C020F087E00E943E0003C088E00E943E00CA
S11300D00E944B00803921E0920720F489E00E94BD
S11300E03E0008958D3B924020F08AE00E943E003D
S11300F008958BE00E943E0008951ABA0E943600CB
S111010082E886B90E945400FDCFF894FFCF28
S9030000FC
