:100000000C942A000C9434000C9434000C943400AA
:100010000C9434000C9434000C9434000C94340090
:100020000C9434000C9434000C9434000C94340080
:100030000C9434000C9434000C9434000C94340070
:100040000C9434000C9434000C9434000C94340060
:100050000C94340011241FBECFE5D8E0DEBFCDBF25
:100060000E9436000C9456000C9400008D9A8FB5B7
:1000700082688FBD8EB58B618EBD87E893E197BD99
:1000800086BD3CE820E0832F922F9BBD8ABD4FEFB9
:1000900051EE64E0415050406040E1F700C0000084
:1000A00005968B3742E0940781F7EDCFF894FFCFA8
:00000001FF
