S00B000050574D2E7372656325
S11300000C942A000C9434000C9434000C943400A6
S11300100C9434000C9434000C9434000C9434008C
S11300200C9434000C9434000C9434000C9434007C
S11300300C9434000C9434000C9434000C9434006C
S11300400C9434000C9434000C9434000C9434005C
S11300500C94340011241FBECFE5D8E0DEBFCDBF21
S11300600E9436000C9451000C940000BB9A85E663
S113007083BF90E028E7892F8CBFEFE3FFE131973E
S1130080F1F700C000008F5F8937B1F7822F8CBF72
S1130090EFE3FFE13197F1F700C000008150B8F7BA
S10900A0EACFF894FFCF43
S9030000FC
