S0110000696E746572727570742E7372656326
S11300000C942A000C9434000C9434000C943400A6
S11300100C9434000C9434000C9434000C9436008A
S11300200C9434000C9434000C9434000C9434007C
S11300300C9434000C9434000C9434000C9434006C
S11300400C9434000C9434000C9434000C9434005C
S11300500C94340011241FBECFE5D8E0DEBFCDBF21
S11300600E9448000C945C000C9400001F920F92B4
S11300700FB60F9211248F939F9398B383E089272F
S113008088BB9F918F910F900FBE0F901F90189572
S1130090789483E087BB88B3836088BB8FB58FBDBA
S11300A08EB584608EBD80E189BF1DBC1CBC80E21E
S10F00B09EE49BBD8ABDFFCFF894FFCFF7
S9030000FC
