S01F00004144435F554152545F73746174757320726563656976652E737265639C
S11300000C942A000C9434000C9434000C943400A6
S11300100C9434000C9434000C9434000C9434008C
S11300200C9434000C9434000C9434000C9434007C
S11300300C9434000C9434000C9434000C9434006C
S11300400C9434000C9434000C9434000C9434005C
S11300500C94340011241FBECFE5D8E0DEBFCDBF21
S11300600E943A000C945E000C9400005F9BFECF4B
S11300708CB108958FEF88BBD5EF0F2EF4EFFF2ED0
S1130080F02D03EF12EFC1EF0E943600813011F41E
S1130090C8BB0DC0823011F418BB09C0833011F401
S11300A008BB05C0843011F4F8BA01C0D8BB87E896
S11300B093E10197F1F700C00000E6CFF894FFCF79
S9030000FC
